:020000040000fa
:080000000002040000000000f2
:020000040000fa
:100008009a0200009a0200009a0200009a02000078
:100018009a0200009a0200009a0200009a02000068
:100028009a0200009a0200009a0200003e1a00009c
:100038009a0200009a0200009a0200009a02000048
:100048009a0200009a0200009a0200000a170000b3
:100058009a0200009a0200009a0200009a02000028
:100068009a0200009a0200009a0200009a02000018
:100078009a0200009a0200009a0200009a02000008
:100088009a0200009a0200009a0200009a020000f8
:100098009a0200009a0200009a0200009a020000e8
:1000a8009a0200009a0200009a0200009a020000d8
:1000b8009a0200009a0200009a0200009a020000c8
:1000c8009a0200009a0200009a0200009a020000b8
:1000d8009a0200009a0200009a0200009a020000a8
:1000e8009a0200009a0200009a0200009a02000098
:1000f8009a0200009a0200009a0200009a02000088
:100108009a0200009a0200009a0200009a02000077
:100118009a0200009a0200009a0200009a02000067
:100128009a0200009a0200009a0200009a02000057
:100138009a0200009a0200009a0200009a02000047
:100148009a0200009a0200009a0200009a02000037
:100158009a0200009a0200009a0200009a02000027
:100168009a0200009a0200009a0200009a02000017
:100178009a0200009a0200009a0200009a02000007
:100188009a0200009a0200009a0200009a020000f7
:100198009a0200009a0200009a0200009a020000e7
:1001a8009a0200009a0200009a0200009a020000d7
:1001b8009a0200009a0200009a0200009a020000c7
:1001c8009a0200009a0200009a0200009a020000b7
:1001d8009a0200009a0200009a0200009a020000a7
:1001e8009a0200009a0200009a0200009a02000097
:0801f8009a0200009a020000c7
:020000040000fa
:100208009a0200009a0200009a0200009a02000076
:100218009a0200009a0200009a0200009a02000066
:100228009a0200009a0200009a0200003e1a00009a
:100238009a0200009a0200009a0200009a02000046
:100248009a0200009a0200009a0200000a170000b1
:100258009a0200009a0200009a0200009a02000026
:100268009a0200009a0200009a0200009a02000016
:100278009a0200009a0200009a0200009a02000006
:100288009a0200009a0200009a0200009a020000f6
:100298009a0200009a0200009a0200009a020000e6
:1002a8009a0200009a0200009a0200009a020000d6
:1002b8009a0200009a0200009a0200009a020000c6
:1002c8009a0200009a0200009a0200009a020000b6
:1002d8009a0200009a0200009a0200009a020000a6
:1002e8009a0200009a0200009a0200009a02000096
:1002f8009a0200009a0200009a0200009a02000086
:100308009a0200009a0200009a0200009a02000075
:100318009a0200009a0200009a0200009a02000065
:100328009a0200009a0200009a0200009a02000055
:100338009a0200009a0200009a0200009a02000045
:100348009a0200009a0200009a0200009a02000035
:100358009a0200009a0200009a0200009a02000025
:100368009a0200009a0200009a0200009a02000015
:100378009a0200009a0200009a0200009a02000005
:100388009a0200009a0200009a0200009a020000f5
:100398009a0200009a0200009a0200009a020000e5
:1003a8009a0200009a0200009a0200009a020000d5
:1003b8009a0200009a0200009a0200009a020000c5
:1003c8009a0200009a0200009a0200009a020000b5
:1003d8009a0200009a0200009a0200009a020000a5
:1003e8009a0200009a0200009a0200009a02000095
:0803f8009a0200009a020000c5
:020000040000fa
:10040000efcf20000e7f22000e01880000000000c8
:10041000000020000000e000020032000001200087
:10042000200288000c000700c0bb21000100200052
:1004300011000700000020000000e0000200320070
:100440000000020000000000261c02000000000066
:100450000040da000000fe004440a90040222000d5
:100460000000e0000300320000002000a00188002e
:100470004440a80000000600910188008000780038
:100480000000eb0015003700e280400032a0b4000d
:100490009101ba00e280400032a0b4009102ba009b
:1004a000e280400032a0b4000002eb00472bde00e7
:1004b000f507b200602ce10004003a000059eb009f
:1004c0008301e900fdff3e00040037006128e100e0
:1004d000010032000082eb00040007001101ba00a5
:1004e0000200e000e8ff3a00000006003159ba00bf
:1004f0008301e9000c0032002159ba008301e900b0
:10050000080032000400e00003003a00e2804000ee
:1005100032a0b400f5ff370011d9ba008301e90019
:10052000faff3a008100e800e180400032a0b40008
:0c053000000006000040da000000fe00a1
:020000040000fa
:10053c005761000069740000696e000067200000bc
:10054c00666f00007220000049440000202000006b
:10055c000057000061690000746900006e670000bc
:10056c00206d00006573000073610000676500007a
:10057c00200000004e650000772000006d65000033
:10058c0073730000616700006521000020200000eb
:10059c002020000000520000656300006976000016
:1005ac00696e0000672000006d6500007373000029
:1005bc0061670000650000000d0a00004265000044
:1005cc006e760000696e00006775000074200000f4
:1005dc00616c000020570000616c00006b6900002a
:1005ec00652d0000546500007874000069650000fa
:1005fc00210d00000a000000000d00000a000000a0
:10060c00003100002d4900006e740000726f000074
:10061c006475000069720000207500006e200000f7
:10062c006e6f00007520000069640000656e0000ac
:10063c00746900006669000063610000646f00006b
:10064c00720d00000a000000003200002d43000073
:10065c006f6e0000737500006c7400006172000016
:10066c002049000044200000616300007475000004
:10067c00616c00000d0a000000000000332d00002a
:10068c00436f00006e730000756c00007461000015
:10069c007220000074720000616d00006573000030
:1006ac0020690000646500006e740000696600003b
:1006bc006963000061640000657300000d0a0000ae
:1006cc0000000000342d0000436f00006e7300002a
:1006dc00756c0000746100007220000074720000e0
:1006ec00616d000065730000207400006f740000e1
:1006fc00616c0000730d00000a0000000035000062
:10070c002d56000069730000756100006c690000d3
:10071c00747a000061720000206c000027750000e4
:10072c006c740000696d0000206d0000697300009e
:10073c0073610000746700006520000072650000a2
:10074c0062750000740d00000a0000000036000005
:10075c002d52000065730000657400000d0a000046
:10076c000a000000005000006572000020730000b9
:10077c006f72000074690000722000006465000054
:10078c0020710000756100006c730000657600003c
:10079c006f6c0000206f000070630000696f000038
:1007ac002c20000070720000656d000020450000d8
:1007bc00534300000d0a0000000000000a20000056
:1007cc00477200006163000069650000732000003f
:1007dc00706500006c2000006e6f0000752000003a
:1007ec0049440000210d00000a000000000d00002b
:1007fc000a490000443a000020000000000d0000ef
:10080c000a0a0000000000000a4500007272000095
:10081c006f720000206e00006f20000068690000fd
:10082c002068000061200000494400000d0a00000f
:10083c00000000000d0a000054720000616d000001
:10084c006573000020490000646500006e740000b0
:10085c006966000069630000616400006573000054
:10086c003a200000000000000d0a00005472000045
:10087c00616d000065730000205400006f7400006f
:10088c00616c0000733a000020000000000a0000b8
:10089c000d000000000a00004e6f000020680000f0
:1008ac006920000068610000206300006170000096
:1008bc00206d000069730000736100007467000014
:1008cc006520000063610000727200006567000023
:1008dc00617400002e0a00000d00000000490000a9
:1008ec006e74000072690000647500006569000098
:1008fc0078200000656c00002049000044200000b6
:10090c0064650000206c000061200000706c000029
:10091c0061630000610d00000a000000000a000085
:10092c004c27000049440000206100006374000063
:10093c00756100006c20000064650000206c0000f4
:10094c0061200000706c00006163000061200000f9
:10095c00657300003a2000000d0a00000000000042
:10096c00426f00006f740000696e0000672e00007b
:08097c002e2e00000000000017
:020000040000fa
:100984000200fa00000f78009e007800803e2000ec
:1009940000017800110009008200d800804078002e
:1009a40020c920000148780020c9200010407800a8
:1009b4008000fb0080c12f000088b900000078008f
:1009c4001e0f40009e0078004006200000017800c1
:1009d400110009008200d8008040780030c920004e
:1009e4000148780030c92000104078008000fb00e6
:1009f400c0f92f000088b900000078001e0f4000e5
:100a04009e007800a0002000000178001100090079
:100a14008200d8008040780040c920000148780056
:100a240040c92000104078008000fb0060ff2f00c8
:100a34000088b900000078001e0f40001e007800f6
:100a4400004078000043b0008040780050c9200086
:100a54000148780060c920008040eb00014878001c
:100a640040c92000104078000043b0008040780066
:100a740040c920000148780030c9200010407800a7
:100a84000043b0008040780030c92000014878005d
:100a940020c92000104078000043b0008040780056
:100aa40020c92000014878000080fa0000000600f8
:100ab4000000fa00202e28006708070030302800c4
:100ac400650807007030280063080700b03228006a
:100ad40061080700403428005f08070080362800ba
:100ae4005d080700503828005b080700d03a28004a
:100af400590807003030280057080700903b2800a9
:100b0400550807000080fa00000006000200fa0001
:100b14000000eb00000f78000500370040cc2000f7
:100b24001e00400001c3b300014878001e0fe80016
:100b34001e007800e20f5000f8ff3400200020006f
:100b440010408800c942a80000c1b3000fe8b700f4
:100b54001968ef000028ef008b0a070000407800b6
:100b640004e8b700880a0700a04088000568ef0081
:100b74001c68ef001cc8bf001be8b7001bc8bf00ff
:100b84001ae8b7001ac8bf000ce8b7000cc8bf00c9
:100b94000ee8b7000ec8bf000080fb00000f78000d
:100ba4001e0078000040780009e8b70009c8bf00bb
:100bb40017e8b70017c8bf0016e8b70016c8bf008b
:100bc4000000fb00904088009040800000407800c6
:100bd40008e8b7000080fa00000006000000fa00f0
:100be400881f780005c8bf000000fb00e40f500018
:100bf40090003200e40f50000c003c00e10f500064
:100c04003f003200e10f500003003c000000e00010
:100c14000f003200b6003700e20f50005e003200d1
:100c2400e30f500079003200b1003700e60f5000a6
:100c3400a9003200e60f500088003500e80f50008c
:100c440035003200ea0f500099003200a800370046
:100c54005116800000402000008060000000e00089
:100c6400240032001cc8bf000004e00003003a0066
:100c74008fff070010c0b3001ce8b700fc07070093
:100c84000000e00019003200fe07070006e8b70084
:100c9400618020009140780060c3b30080cf500091
:100ca4000d003c00618020009140780000c3b30037
:100cb40080cf50000800340006c8bf008040780090
:100cc40000cdb30000c0400005e8b70005c8bf0070
:100cd4004602070086003700d0c0b300ed070700c6
:100ce40006c8bf00eb070700810037000568ef0066
:100cf4007f0037000568ef001c68ef007c003700b8
:100d0400db0707000000e0007600320080c0b3007b
:100d140005e8b7007600370018408000d9070700bf
:100d240041cc200080707c001040800041cc200029
:100d340061407800fb4f500003003a005cff07005d
:100d44000568ef006a003700104080000000e000f2
:100d54000600340010c0b30005e8b700104080005e
:100d64000000e9001040880061003700403e280080
:100d7400b90707004eff07000568ef0020002000b8
:100d84001040880010c0b30008e8b70010c0b300da
:100d940007e8b7005600370004c8bf001f0a070061
:100da40021032000810f50005000360007c8bf0007
:100db400e14f500010003a00d03f2800a60707007a
:100dc40090cd200010407800b207070080cd2000ad
:100dd40010407800af07070070cd20001040780065
:100de400ac070700504028009b07070030ff0700ae
:100df4000568ef003e003700a04028009607070072
:100e04002bff07000568ef00390037000042280077
:100e14009107070017c8bf000043b0009d070700f3
:100e2400504028008c07070021ff07000568ef00e9
:100e34002f003700a04328008707070016c8bf000b
:100e44000043b000930707005040280082070700c2
:100e540017ff07000568ef002500370009c8bf0029
:100e6400e14f50000d003a000fc8bf000080fb00a6
:100e7400ae0a07000004e00005003a00d044280050
:100e8400750707000aff07000568ef001800370020
:100e9400a0c0b30005e8b7001500370010452800ce
:100ea4006d07070002ff07000568ef001000370018
:100eb4000fc8bf008080fb000040e8000fe8b700c7
:100ec40001007800990a07007207070050c0b300b8
:100ed40005e8b700060037000000fe00000000002f
:100ee400030037000000000001003700000000008c
:100ef4004f0478000080fa00000006000200fa00a7
:100f0400a1090700004078000be8b7000c68ef0067
:100f1400d30207000000eb00000f78000500370043
:100f240070cd20001e00400001c3b30001487800ca
:100f34001e0fe8001e007800e20f5000f8ff340096
:100f44000e68ef0090cc2000f1c2b3000148780095
:100f5400c0cc200001c2b30001487800d0cc2000ee
:100f640001c2b30001487800e0cc200001c2b30004
:100f740001487800f0cc200001c2b3000148780099
:100f840000cd200001c2b3000148780010cd20003c
:100f940091c4b3000148780020cd200041c4b300bf
:100fa4000148780030cd2000a1c3b3000148780087
:100fb4000080fa00000006000000fa000ac8bf0022
:100fc4000000fb00e20f500032013200e20f50003b
:100fd40005003c000000e0000a003200e10f500070
:100fe400b50032007f013700e40f50003c013200ad
:100ff400e40f50002f013500e50f50004801320086
:101004007801370009c8bf000004e0006100320025
:10101400a04080000040780080090700713821005a
:10102400810f500017003e001ac8bf000004e00002
:1010340014003a000dc8bf008080fb00022c280079
:10104400e2c078000040e8000de8b70001407800f5
:10105400d50207000dc8bf00f04f5000070036004e
:1010640010c0b3000ae8b7000bc8bf00610907004d
:1010740011c0b3000040eb008e0207000000000026
:10108400580137001bc8bf00e14f500013003a005d
:101094000dc8bf008080fb00122d2800e2c078003c
:1010a4000040e8000de8b70001407800be020700e8
:1010b4000dc8bf00f04f50003901360010c0b30016
:1010c4000ae8b7000bc8bf004a09070011c0b30003
:1010d4000040eb0077020700420137007d0807005b
:1010e40010c0b3001ae8b7000ec8bf008080fb0030
:1010f4000040e8000ee8b700010078000b0a070082
:1011040018e8b70018c8bf000004e00003003a0064
:1011140000c2b300a40207000200370018c8bf00d1
:10112400a102070018c8bf000004e00005003a004f
:101134000dc8bf000004e00002003a0010c0b30074
:1011440019e8b700d18020009140780010c0b300a6
:10115400f0cf500001003e000040eb008140e80069
:1011640081417800d2802000034978000004e00027
:101174000d01320010c0b3000ae8b7000bc8bf006d
:101184001c09070011c0b3000040eb00490207002e
:10119400140137001bc8bf00e14f500013003a0090
:1011a4000dc8bf008080fb00122d2800e2c078002b
:1011b4000040e8000de8b700014078007a0207001b
:1011c4000dc8bf00f04f5000f900360010c0b30046
:1011d4000ae8b7000bc8bf000609070011c0b30036
:1011e4000040eb0033020700fe00370009c8bf00cf
:1011f4000004e00017003a0007c8bf000004e00044
:1012040014003a000dc8bf008080fb00e2292800ca
:10121400e2c078000040e8000de8b7000140780023
:10122400610207000dc8bf00f04f500007003600f0
:1012340010c0b3000ae8b7000bc8bf00ed080700f0
:1012440011c0b3000040eb001a02070000000000c8
:10125400e400370009c8bf000004e000d6003a00eb
:1012640007c8bf000004e000d50032000dc8bf006d
:101274008080fb00f22a2800e2c078000040e800e9
:101284000de8b70001407800470207000dc8bf0011
:10129400f04f5000cc00360010c0b3000ae8b7008d
:1012a4000bc8bf00d308070011c0b3000040eb0017
:1012b40000020700cb00370008c8bf00e14f500010
:1012c4002100320007c8bf000004e00031003a00ea
:1012d40070cd2000104078008040e80070cd2000e0
:1012e4000148780080cd2000104078008040e8005c
:1012f40080cd20000148780090cd20001040780077
:101304008040e80090cd20000148780070cd200096
:101314009040780090c3b30080cf50001d0034008b
:1013240070cd200001c3b3000148780080cd2000b7
:1013340001c3b3000148780090cd200001c3b3007d
:10134400014878001300370008c8bf00e14f50007f
:1013540010003a0040cc20009040780070cd20006e
:101364000148780050cc20009040780080cd2000c7
:101374000148780060cc20009040780090cd200097
:10138400014878001768ef0070cd2000730707004c
:101394000868ef0017c8bf008000fb00a000200011
:1013a40000017800110009008200d8000040780094
:1013b40003c3b3008340400070cc20000148780090
:1013c40017c8bf008000fb00a000200000017800c7
:1013d400110009008200d8008000fd000040780060
:1013e40003c3b3008340400080cc20000148780050
:1013f40016c8bf008000fb00a00020000001780098
:10140400110009008200d8000040780003c3b30033
:1014140083404000a0cc20000148780016c8bf00db
:101424008000fb00a00020000001780011000900ea
:101434008200d8008000fd000040780003c3b300a0
:1014440083404000b0cc20000148780090cd2000bb
:10145400104078008040780040cd2000014878009a
:1014640080cd2000104078008040780050cd2000ce
:101474000148780070cd200010407800804078004a
:1014840060cd20000148780020c0b3000ae8b7000e
:1014940054003700b3080700804088008040800073
:1014a400680007009040880030c0b3000ae8b70025
:1014b4004c0037000bc8bf0058080700914080005b
:1014c400810f5000420036000bc8bf0049080700d6
:1014d4000d68ef0040c0b3000ae8b70041003700d0
:1014e4000dc8bf008080fb0072cc2000e2c07800f1
:1014f4000040e8000de8b70001407800aa010700a9
:101504000dc8bf00f04f50003300360050c0b30088
:101514000ae8b7000bc8bf003608070031003700df
:101524000bc8bf003d080700910f2000810f500039
:101534002b0036000a68ef008040eb000040eb000f
:101544005c010700a04080000040780033080700d9
:1015540071382100810f50000e00360009c8bf0009
:10156400e14f50000b003a000cc8bf000040e800f7
:101574000ce8b70019c8bf00e14f500002003a0060
:101584000c68ef001968ef000cc8bf000ee8b70044
:10159400010037000e68ef000d68ef0011003700fe
:1015a400000000000f003700000000000d003700ad
:1015b400000000000b0037000000000009003700a5
:1015c400000000000700370000000000050037009d
:1015d4000000000003003700000000000100370095
:1015e400000000000080fa00000006000200fa007b
:1015f400004f78001e00fb00e20f5000070032008d
:10160400e50f50000a003200e10f50000b003a00d1
:10161400504728009005070008003700504928006b
:101624008d05070004c8bf00f20707000300370058
:10163400a0c0b30097050700000000000080fa0076
:10164400000006000400fa00100798001e00900035
:101654006900b90080007800500020000001780083
:10166400110009008280d800810c2000010f400085
:101674001e0078000080fa00000006000200fa0054
:10168400000f78001e007800104078000043b0007e
:101694008040780070cd2000014878001e00e800ea
:1016a400104078000043b0008040780080cd2000d6
:1016b400014878001e80e800104078000043b00024
:1016c4008040780090cd2000014878000080fa0026
:1016d400000006000200fa00000f78001e007800e7
:1016e400104078000043b000804078001e0078006d
:1016f400014878001e00e8009e00e8009140780050
:101704000143b000014878001e80e8009e80e80094
:10171400914078000143b0000148780090cd20004a
:10172400904078001e0078001040780080cf500070
:101734000e003a0080cd2000904078001e00e800a2
:101744001040780080cf500008003a0070cd20008f
:10175400904078001e80e8001040780080cf500050
:1017640002003a0010c0b300010037000040eb0053
:101774000080fa00000006000200fa00004f780022
:101784001e4078000004e00004003a0016c8bf00c0
:101794000040e80016e8b7000200370010c0b300ac
:1017a4001be8b7000080fa00000006000200fa00ff
:1017b400000f780010c0b30009e8b7001b68ef0001
:1017c400f100200000c2b3004f080700a0408000d1
:1017d40000407800870707001a68ef0016c8bf00aa
:1017e4000040e80016e8b70017c8bf000040e80052
:1017f40017e8b7001e00780004000700a0cf2000ff
:10180400a00607000080fa00000006000200fa00ab
:10181400000f78001e0078006a00b900800078008c
:10182400c012200000017800110009008280d80055
:1018340080407800a0cf20001040780000c0400015
:1018440080407800a0cf2000014878001e00780076
:101854006a00b90080007800c012200000017800fe
:10186400110009008280d80080407800b0cf2000a9
:101874001040780000c0400080407800b0cf2000c5
:10188400014878001e0078006a00b90080007800e2
:10189400c012200000017800110009008280d800e5
:1018a40080407800c0cf20001040780000c0400085
:1018b40080407800c0cf2000014878001e007800e6
:1018c4006a00b90080007800c0122000000178008e
:1018d400110009008280d80080407800d0cf200019
:1018e4001040780000c0400080407800d0cf200035
:1018f400014878000080fa00000006000400fa00a5
:1019040020479800314798001f070700f0418800de
:101914002e4090003ae8b7003e4090003be8b70004
:101924003d68ef003dc8bf003ce8b700c8a2a9006d
:10193400401680004500de00614060000080fb002e
:101944004f00dd0042168000f1ff27008100610096
:101954000100700040168800401680004f00de0031
:10196400004078000080fb00610060004300dd005f
:101974004216800071ff2f00810061000100700099
:10198400401688000000eb00000f780029003700a3
:10199400f041800041062000cf00070030c0b300b2
:1019a40041020700f041800051002000ca000700f6
:1019b40030c0b3003c020700f04180001100200059
:1019c400c500070030c0b30037020700f0418000b3
:1019d40011002000c000070020c0b300320207003d
:1019e400f041800011002000bb00070080c2b3005a
:1019f40043010700ec01070080c0b3004001070069
:101a0400e901070010c0b3003d010700f041800068
:101a140031002000b0000700e301070060c0b300fc
:101a240037010700e0010700f0c0b30034010700ec
:101a34001e0fe8001e007800e10f5000d4ff3400b0
:101a44000080fa00000006000000fa00f041800067
:101a540000407800ff0607000080fa00000006003e
:101a64000000fa00d001070010c0b30024010700f1
:101a7400f041800031002000970007000080fa0048
:101a8400000006000000fa00c7010700e0c0b30030
:101a94001b0107000080fa00000006000000fa00a5
:101aa400c1010700c0c0b300150107000080fa009f
:101ab400000006000400fa0020479800314798000f
:101ac4003ac8bf000080fb00e20f50000300320060
:101ad400e40f50000b003200220037002e4090002b
:101ae4008000fb003e4090000004e00002003a0049
:101af4000000eb000100370000042000008f4000cc
:101b04001d0037002e4090000000fb00000f7800fd
:101b14003e409000e14f500003003a0001042000d1
:101b24001e8f4000140037003e409000e24f5000ea
:101b340004003a003bc8bf000080fb001e0f4000b9
:101b44000d0037003e409000e34f500009003a007a
:101b54003bc8bf000080fb000004b0001e0f400023
:101b6400050037002e4090000000fb00000f7800b5
:101b740001003700000000008b0107001e00780000
:101b84008040780000c8b30000c07000dc0007008b
:101b94003e4090003ce8b7002e4090003de8b7007e
:101ba4000080fa00000006000200fa00004f7800ee
:101bb4007d0107001e407800260107003dc8bf00d4
:101bc4000040e8003de8b7003ac8bf00e34f5000ca
:101bd40010003a003dc8bf00f34f50002f003600fc
:101be4003d68ef003cc8bf000040e8003ce8b70097
:101bf4003cc8bf00e34f5000010036003c68ef00d2
:101c04003cc8bf00804078003dc8bf00a9ff070062
:101c1400220037003ac8bf00e24f500012003a00d9
:101c2400d18320009140780070c2b30080cf50006f
:101c34001a0036003d68ef003cc8bf000040e800d1
:101c44003ce8b7003cc8bf00e14f5000010036003b
:101c54003c68ef003cc8bf00804078003dc8bf002e
:101c640094ff07000d0037003cc8bf00e14f50004f
:101c74000a003a00d18320009140780070c2b3007a
:101c840080cf5000010036003d68ef003cc8bf0023
:101c9400804078003dc8bf0086ff07000080fa003e
:101ca400000006000200fa00000f7800040037006c
:101cb4001e007800104078001e0fe800baff0700ed
:101cc4001e007800104078000004e000f8ff3a009d
:101cd4000080fa00000006000400fa00000f7800fb
:101ce400110798001e0078000040780041060700a4
:101cf400000000001e00780000407800470607003e
:101d04009e009000810f5000faff39000080fa0015
:101d1400000006000200fa00004f78001e80fb005d
:101d24004700de00004078000080fb006100600096
:101d34004900dd0062168000f1df2f0081006100a0
:101d440001007000601688009e00fb000004200063
:101d54000080600000f0a7000000ea000000ea0034
:101d64004f00de00004078000080fb00610060004e
:101d74004800dd0062168000f1ef2f008100610051
:101d840001007000601688009e00fb000002200025
:101d94000080600000f0a7000000ea000000ea00f4
:101da4004f00de00004078000080fb00610060000e
:101db4004700dd0062168000f1f72f00810061000a
:101dc40001007000601688001e00fb0070006000b7
:101dd40000f0a7000000ea000000ea004f00de0067
:101de400004078000080fb00610060004600dd00d8
:101df40062168000f1fb2f00810061000100700079
:101e0400601688000080fa00000006000200fa0054
:101e1400004f78001e00fb006800600000f0a7007f
:101e24000000ea000000ea004f00de0000407800f5
:101e34000080fb00610060004900dd006216800044
:101e4400f1df2f008100610001007000601688003e
:101e54001e00fb006400600000f0a7000000ea0020
:101e64000000ea004f00de00004078000080fb0024
:101e7400610060004800dd0062168000f1ef2f0071
:101e84008100610001007000601688001e00fb00e4
:101e94006200600000f0a7000000ea000000ea0011
:101ea4004f00de00004078000080fb00610060000d
:101eb4004700dd0062168000f1f72f008100610009
:101ec40001007000601688001e40780061406000c8
:101ed40061406000614060000080fb0061006000c0
:101ee4004600dd0062168000f1fb2f0081006100d6
:101ef40001007000601688000080fa0000000600ef
:101f04000200fa00004f7800c922a90040168000a0
:101f14004900de00614060000080fb006100600059
:101f24004800dd0042168000f1ef2f0081006100bf
:101f34000100700040168800401680004800de0052
:101f4400614060000080fb00610060004700dd002c
:101f540042168000f1f72f0081006100010070003b
:101f640040168800401680004700de006140600093
:101f74000080fb00610060004600dd004216800026
:101f8400f1fb2f0081006100010070004016880001
:101f9400cc62a900cde2a900cca2a8001e40780022
:101fa4005cff0700cca2a800cca2a900cca2a90087
:101fb400cca2a8001e40780094ff0700cca2a80081
:101fc400cca2a900c922a800401680004900de0066
:101fd400614060000080fb00610060004800dd009b
:101fe40042168000f1ef2f008100610001007000b3
:101ff40040168800401680004800de006140600002
:102004000080fb00610060004700dd004216800094
:10201400f1f72f0081006100010070004016880074
:10202400401680004700de00614060000080fb0035
:10203400610060004600dd0042168000f1fb2f00c5
:102044008100610001007000401688000080fa00e1
:10205400000006000200fa00004f7800c922a9001f
:10206400401680004900de00614060000080fb00f3
:10207400610060004800dd0042168000f1ef2f008f
:102084008100610001007000401688004016800045
:102094004800de00614060000080fb0061006000d9
:1020a4004700dd0042168000f1f72f008100610037
:1020b4000100700040168800401680004700de00d2
:1020c400614060000080fb00610060004600dd00ac
:1020d40042168000f1fb2f008100610001007000b6
:1020e40040168800cc62a800cde2a900cca2a800ca
:1020f4001e40780007ff0700cca2a800cca2a900cc
:10210400cca2a900cca2a8001e4078003fff070083
:10211400cca2a800cca2a900c922a8004016800025
:102124004900de00614060000080fb006100600047
:102134004800dd0042168000f1ef2f0081006100ad
:102144000100700040168800401680004800de0040
:10215400614060000080fb00610060004700dd001a
:1021640042168000f1f72f00810061000100700029
:1021740040168800401680004700de006140600081
:102184000080fb00610060004600dd004216800014
:10219400f1fb2f00810061000100700040168800ef
:1021a4000080fa00000006000200fa00c922a8001c
:1021b400401680004900de00614060000080fb00a2
:1021c400610060004800dd0042168000f1ef2f003e
:1021d40081006100010070004016880040168000f4
:1021e4004800de00614060000080fb006100600088
:1021f4004700dd0042168000f1f72f0081006100e6
:102204000100700040168800401680004700de0080
:10221400614060000080fb00610060004600dd005a
:1022240042168000f1fb2f00810061000100700064
:1022340040168800cc62a900cde2a800f0418000dd
:1022440000407800eb040700cca2a800cca2a800b0
:10225400501680004900de0061406000004f7800a5
:10226400cca2a900cca2a900cca2a800cca2a80010
:10227400cca2a900cca2a900f041800000407800c3
:10228400e60407000000e00004003a001e40780065
:102294000004e000ecff3a000100370000000000f9
:1022a4000080fa00000006000200fa00004f7800e7
:1022b400c922a900401680004900de006140600088
:1022c4000080fb00610060004800dd0042168000d1
:1022d400f1ef2f00810061000100700040168800ba
:1022e400401680004800de00614060000080fb0072
:1022f400610060004700dd0042168000f1f72f0006
:1023040081006100010070004016880040168000c2
:102314004700de00614060000080fb006100600057
:102324004600dd0042168000f1fb2f0081006100b1
:102334000100700040168800cc62a900cde2a9001b
:10234400cca2a800cca2a8001e00fb00680060007c
:1023540000f0a7000000ea000000ea004f00de00e1
:10236400004078000080fb00610060004900dd004f
:1023740062168000f1df2f0081006100010070000f
:10238400601688001e00fb006400600000f0a700d7
:102394000000ea000000ea004f00de000040780080
:1023a4000080fb00610060004800dd0062168000d0
:1023b400f1ef2f00810061000100700060168800b9
:1023c4001e00fb006200600000f0a7000000ea00ad
:1023d4000000ea004f00de00004078000080fb00af
:1023e400610060004700dd0062168000f1f72f00f5
:1023f4008100610001007000601688001e407800b2
:102404006140600061406000614060000080fb004a
:10241400610060004600dd0062168000f1fb2f00c1
:10242400810061000100700060168800cca2a90040
:102434000080fa00000006000200fa001e68ef00a7
:10244400c9a2a8000000eb00000f780005003700c7
:10245400f08420001e0040008040eb00014878001a
:102464001e0fe800d01520009e007800808f5000d9
:10247400f7ff3400e08420008040eb00014878003e
:10248400e084200090407800d08420000148780047
:10249400d084200090407800c08420000148780057
:1024a4002828ef002a68ef002ac8bf000000fb00bc
:1024b400000f78001e007800004078002ce8b70078
:1024c4002cc8bf002de8b7002dc8bf0023e8b70013
:1024d40023c8bf002be8b7002bc8bf0022e8b70011
:1024e40022c8bf002ee8b7002ec8bf001fe8b700ff
:1024f40000012000304188002304070000418800c7
:102504000080fa00000006000000fa001ec8bf00a8
:102514000080fb00e20f50002b003200e20f50005d
:1025240005003c000000e0000a003200e10f50000a
:102534001300320048013700e40f5000520032000b
:10254400e40f500041003500e50f50006c003200ec
:102554004101370051168000000022000080600015
:102564000000e000270132000041800000407800b4
:102574002004070010c0b3001ee8b700360137007e
:102584005116800000002200008060000000e0007e
:102594001e013a0000418000004078001f0407003b
:1025a400e40f500002003e001e68ef002a013700cd
:1025b40000418000004078000e04070020c0b300f2
:1025c4001ee8b700240137005116800000002200e5
:1025d400008060000000e00011003a00004180002b
:1025e400004078000d040700e90f5000090136008f
:1025f400004180000040780008040700ea0f500002
:1026040006013e000041800000407800f903070005
:102614002c68ef0030c0b3001ee8b7000e0137008d
:102624005116800000002200008060000000e000dd
:10263400fc0032000041800000407800ed030700f8
:1026440020c0b3001ee8b700030137005016800015
:102654004d00de00614060008080fb002cc8bf009c
:102664000000fb00808f5000f00032005016800004
:102674004d00de00614060002ce8b70040c0b300ac
:102684001ee8b700f4003700501680004d00de004d
:10269400614060008080fb002cc8bf000000fb008c
:1026a400808f5000e3003200004180000040780039
:1026b400d00307002ac8bf000000fb000000400050
:1026c40080407800501680004d00de0061406000bc
:1026d40000c070002ae8b700501680004d00de00ec
:1026e400614060002ce8b70023c8bf000040e80048
:1026f40023e8b70050c0b3001ee8b700d600370087
:10270400501680004d00de00614060008080fb00b8
:102714002cc8bf000000fb00808f50001b0032005b
:102724000041800000407800bc030700e60f500021
:10273400160036000041800000407800ad03070019
:102744002ac8bf000000fb00000040008040780061
:10275400501680004d00de006140600000c0700033
:102764002ae8b700501680004d00de00614060008a
:102774002ce8b70023c8bf000040e80023e8b700f6
:1027840050c0b3001ee8b700130037005016800095
:102794004d00de00614060008080fb002cc8bf005b
:1027a4000000fb00808f50000b00320000418000cd
:1027b4000040780099030700e60f500006003e0031
:1027c400501680004d00de00614060002ce8b70028
:1027d40040c0b3001ee8b70023c8bf00e84f500054
:1027e4000a003a002dc8bf000004e00007003a00c8
:1027f4002ac8bf002be8b70010c0b3002de8b7000b
:102804002368ef0050c0b3001ee8b70023c8bf0020
:10281400e84f500017003a0024c8bf00e24f5000b0
:1028240014003e00b182200091407800e0c4b3005f
:1028340080cf50000f003a002dc8bf00e14f500078
:102844000c003a0024c8bf008080fb00a382200053
:1028540093417800c284200003f178000040e8002e
:1028640024e8b7002828ef002368ef0050c0b30025
:102874001ee8b70024c8bf00e34f500015003a001b
:102884002ec8bf000004e00012003a00c0842000fb
:1028940090fb07002ee8b7002ec8bf00b6fb070068
:1028a4002ec8bf000004e0000a003a002368ef00cd
:1028b4002468ef0000012000304188002b68ef00fd
:1028c4002d68ef001e68ef00004180000040780092
:1028d4004803070023c8bf00e84f50001c003a001b
:1028e40024c8bf00e24f500019003600a182200026
:1028f40091407800d0c3b30080cf50001400320060
:10290400b182200091407800e0c4b30080cf500031
:102914000f003a002dc8bf00e14f50000c003a00f0
:10292400404180000000e8004041880030418000c0
:10293400800078000000e800304188002ac8bf0009
:10294400f10307002368ef0050c0b3001ee8b7008e
:1029540023c8bf00e84f500008003a00b1822000ad
:1029640091407800e0c4b30080cf500003003200ef
:102974002368ef002d68ef001e68ef0023c8bf0036
:10298400e84f50002d003a0024c8bf00e24f500029
:102994002c003600a182200091407800d0c3b300ff
:1029a40080cf500029003a00b18220009140780085
:1029b400e0c4b30080cf500026003a0030418000cc
:1029c400800078000040eb00cf0307004041800006
:1029d40076fb07002368ef002468ef000001200065
:1029e400304188002b68ef002d68ef002e68ef005f
:1029f4001e68ef000041800000407800fd020700df
:102a0400150037000000000013003700000000002c
:102a140011003700000000000f0037000000000024
:102a24000d003700000000000b003700000000001c
:102a34000900370000000000070037000000000014
:102a4400050037000000000003003700000000000c
:102a540001003700000000000080fa0000000600ba
:102a64000000fa00113a8000f00b200000816000a1
:102a74006004200071052000237420008049780040
:102a840081497800824978001136800000fe2f00c9
:102a9400008060003000b3001036880021358000cb
:102aa40000fe2f00008060000020a0002035880078
:102ab400113a80000004200001017000600420002d
:102ac4007105200023742000804978008149780032
:102ad40082497800700620004011880021e2a80095
:102ae400001180000080a1000090a1000011880066
:102af4002062a900001180000010a1000020a100a4
:102b0400001188002002a9002342a8003668ef00c3
:102b14009560a8003268ef0032c8bf0033e8b70000
:102b240033c8bf0030e8b70030c8bf0031e8b70091
:102b340031c8bf0034e8b70034c8bf0035e8b70077
:102b44000080fa00000006000000fa0036c8bf004a
:102b54000000fb00e10f500010003200e10f5000b4
:102b640003003c000000e000060032002b003700a8
:102b7400e20f50000e003200e30f50001500320047
:102b84002600370035c8bf000004e00020003200f2
:102b940010c0b30036e8b70020003700600007001b
:102ba400c041880020c0b30036e8b7001b003700de
:102bb400c0418000104078000004e00003003200af
:102bc40030c0b30036e8b700140037003668ef00b1
:102bd40012003700111180000010200000806000f6
:102be4000000e0000c003200c041800090407800fa
:102bf4008100fb00211188000000e800c04188002a
:102c04002342a80020c0b30036e8b7000300370011
:102c14000000000001003700000000000080fa00fe
:102c2400000006000200fa00000f780004003700dc
:102c34001e007800104078001e0fe8001500070001
:102c44001e007800104078000004e000f8ff3a000d
:102c54000080fa00000006000200fa00000f78006d
:102c64001e007800190007000080fa00000006002a
:102c74000000fa0034c8bf000080fb000080fa00a6
:102c8400000006000000fa004e0007000080fa0071
:102c9400000006000200fa00004f7800010037002f
:102ca4000060fe0011118000001020000080600010
:102cb4000000e000faff32001e00fb002011880033
:102cc4002342a8000080fa00000006000200fa0077
:102cd400000f780030c8bf008080fb0001814000f5
:102ce400e19e2000810041009e0878000040e80039
:102cf40030e8b700018320009140780000c8b30099
:102d040080cf500001003a003068ef0035c8bf00a2
:102d14000040e80035e8b7000080fa000000060033
:102d24000200fa0032c8bf008080fb00018140002d
:102d3400e19e200081004100110f78000040e8006e
:102d440032e8b700218320009140780000c8b30026
:102d540080cf500001003a003268ef0035c8bf0050
:102d64000040e90035e8b7001e0078000080fa0052
:102d7400000006000200fa00004f780031c8bf00ce
:102d84008080fb00e29a20009e41780003f17800e5
:102d94000040e80031e8b70011832000914078003a
:102da40000c4b30080cf500001003a003168ef0046
:102db40034c8bf000040e80034e8b7000080fa00df
:102dc400000006000200fa0033c8bf008080fb0048
:102dd400e29a200062cf78000040e80033e8b700b0
:102de400318320009140780000c4b30080cf5000ac
:102df40001003a003368ef0034c8bf000040e90026
:102e040034e8b7001e4078000080fa000000060095
:102e14003600f800809fbe00829fbe00849fbe00e3
:102e2400869fbe000000fa008560a9001011800092
:102e3400620060000000e000010032002222a900cc
:102e44003011800000407800caff07000080fa00bb
:102e54004f03be004f02be004f01be004f00be0034
:102e64003600f900004006000200fa00c042a90042
:102e7400c062a900c082a900c442a900c462a9001a
:102e8400c482a9000000eb00000f78001600370090
:102e9400bd01070080407800a0cd20001e00400046
:102ea40001487800d0cd20001e0040008040eb0097
:102eb40001487800c0ce20001e0040008040eb0096
:102ec4000148780060ce20001e00400001c3b3001a
:102ed4000148780090ce20001e0040008040eb00a6
:102ee400014878001e0fe8001e007800e20f500031
:102ef400e7ff34004a68ef000080fa000000060093
:102f04000200fa00000f7800d0cd20001e0040001f
:102f1400104078000080fb00e10f500017003200e1
:102f2400e20f5000350032000000e00067003a0074
:102f3400c0ce20001e0040001040780000c0ea000f
:102f4400ea40400000ce20001e0040000148780006
:102f5400a0cd20001e00400010407800a50107000d
:102f64001e0078005b000700d0cd20001e0040004a
:102f740011c0b30001487800540037001e007800e7
:102f840054000700a0cd20001e004000104078002f
:102f9400a20107008000780000ce20001e0040003f
:102fa400104078000080fb0000004000808f50003b
:102fb40043003900a0cd20001e00400010407800de
:102fc4008c010700c0ce20001e0040001040780095
:102fd4008040e80030ce20001e0040000148780008
:102fe4001e0078004c000700d0cd20001e004000d9
:102ff40021c0b30001487800340037001e00780077
:1030040045000700a0cd20001e00400010407800bd
:10301400820107008000780030ce20001e004000ae
:10302400104078000080fb0000004000808f5000ba
:103034002500390060ce20001e004000904078003a
:10304400c0ce20001e00400010407800550007004c
:10305400e14f500003003a004ac8bf000004e000fa
:1030640007003a00c0ce20001e0040001040780047
:103074008040e800c0ce20001e00400001487800d7
:10308400c0ce20001e00400010407800e94f5000e0
:1030940004003400c0ce20001e0040008040eb003d
:1030a400014878001e0078000a000700d0cd2000f7
:1030b4001e0040008040eb00014878000300370008
:1030c4000000000001003700000000000080fa004a
:1030d400000006000200fa00000f78001e007800cd
:1030e400e10f500006003200e20f500006003200eb
:1030f4000000e00006003a00c442a90004003700c2
:10310400c462a90002003700c482a90000000000c4
:103114000080fa00000006000200fa00000f7800a8
:103124001e007800e10f500006003200e20f50004c
:10313400060032000000e00006003a00c442a80085
:1031440004003700c462a80002003700c482a8004b
:10315400000000000080fa00000006000200fa00ef
:10316400000f78001e0078009040780060ce2000a8
:10317400014878001e00e8009040780070ce2000de
:10318400014878001e80e8009040780080ce20003e
:103194000148780010c0b3004ae8b7000080fa0084
:1031a400000006000200fa00004f78001147980062
:1031b4009e00fb001e4090000000fb000003b100d5
:1031c400808f500002003a0010c0b30001003700a5
:1031d4000040eb000080fa00000006000200fa0044
:1031e4000000eb00000f78000500370000cf20003e
:1031f4001e0040008040eb00014878001e0fe800ec
:103204001e007800e90f5000f8ff3400c022a90026
:10321400c422a900dc0007000040780040e8b700a1
:10322400d90007000040780042e8b7004428ef00c6
:103234004368ef0043c8bf0041e8b7000080fa00cc
:10324400000006000200fa00004f78001e417800da
:1032540021842000824878000080fa0000000600e3
:103264000000fa0041c8bf000014a2000080fb0067
:103274000000ea004f00de00004078000080fa0001
:10328400000006000400fa00100798000000eb009c
:10329400000f7800080037001e0078009e009000a0
:1032a400008040009040780000cf20001e004000c5
:1032b400014878001e0fe8001e007800e90f500056
:1032c400f5ff340010c0b30043e8b7000080fa00f3
:1032d400000006000000fa004368ef000080fa00d6
:1032e400000006000000fa0041c8bf000000fb0017
:1032f400e10f500014003200e10f500003003c00c5
:103304000000e0000600320046003700e20f5000e3
:103314001b003200e30f5000270032004100370049
:1033240043c8bf00e14f500039003a0010c0b30059
:1033340041e8b70040c8bf00ae00070042c8bf0064
:10334400ac0007003700370040c8bf00b3000700d7
:103354002142800002cf2000e2c078008100fb00ff
:10336400810f50002c00390040c8bf00a1000700a5
:10337400c422a80020c0b30041e8b70029003700e8
:1033840040c8bf00a50007002142800002cf2000f2
:10339400e2c078008100fb00810f5000200039005a
:1033a40040c8bf0093000700c422a90030c0b30086
:1033b40041e8b7001b00370042c8bf009700070070
:1033c400311f2000810f50000900360042c8bf00a1
:1033d40088000700204280000000e80020428800a6
:1033e40020428000e30f5000010034004428ef0025
:1033f40043c8bf00e14f500003003a0010c0b300bf
:1034040041e8b700070037004168ef0005003700c6
:103414000000000003003700000000000100370036
:10342400000000000080fa00000006000000fa001e
:1034340041c8bf00e24f500002003a004168ef006b
:103444000300370020c0b30041e8b700c422a9003c
:1034540041c8bf000080fb000000e9004f00de000f
:10346400004078000080fa00000006000000fa0026
:103474000080fa0000000600809fbe00821f7800d2
:103484000000fa008460a900304280000000e800d7
:103494003042880031428000f0522700808f500073
:1034a4001d0036004828ef00170037004042800016
:1034b4004200dd008080e800e0c22000008040007f
:1034c40010407800e14f50000c003a004042800068
:1034d400414280004209dd00e1c220008100410038
:1034e4001101780031428000810051004201dd0069
:1034f400e0c2200000004100010878004042800042
:103504000000e8004042880040428000f80f50006c
:10351400e6ff34004628ef000080fa004f017800ef
:103524004f00be00004006000200fa000040eb001d
:10353400004f7800070037001e80fb00c200dd004a
:1035440000c32000008040008040eb000148780068
:103554001e4fe8001e407800f84f5000f6ff36007a
:103564004628ef0004a1a9000481a800007d2000e2
:103574001008880005e1a8008460a9009460a800f0
:103584000080fa00000006000200fa000040eb0090
:10359400004f7800060037001e4fe8001e407800f8
:1035a400f94f500002003a000080eb000f00370092
:1035b4001e80fb004200dd008080e800e0c22000a5
:1035c4000080400010407800e14f5000f2ff3200cc
:1035d4001e80fb00c200dd0000c32000008040000c
:1035e40011c0b300014878001e80fb000080fa007f
:1035f400000006000200fa00004f78001e80fb0065
:10360400314280004201dd00e0c2200000004100a0
:10361400010878000080fa00000006000400fa00a7
:103624002047980030428000000f78009e00780008
:103634002e4090000080fb004201dd00e0c220002b
:103644000000410010007800008050000080fa0063
:10365400000006000200fa00004f78001e80fb0004
:10366400c200dd0000c32000008040008040eb0069
:10367400014878000080fa00000006000000fa000b
:103684000080fa00000006000000fa00c002a80052
:1036940021a3a8002103a900001980004800de002e
:1036a400614060000080fb00610060004900dd00b3
:1036b40002198000f1df2f00810061000100700019
:1036c4000019880020e3a800001980004700de00ec
:1036d400614060000080fb00610060004600dd0086
:1036e40002198000f1fb2f008100610001007000cd
:1036f40000198800001980004600de006140600067
:103704000080fb00610060004500dd0002198000bc
:10371400f1fd2f0081006100010070000019880094
:103724001019800000d0a10000e0a10000f0a10069
:10373400101988002343a9002223a80000102000a8
:10374400201988002823ef00100020008019880029
:1037540021e3a8002023a8002043a8000080fa0049
:10376400000006000000fa00001880000080fa0043
:04377400000006004b
:020000040000fa
:103778002e0c000064000000000000004608000055
:1037880004000000000000003a08000006000000e5
:1037980000000000f00c00000a000000000000001b
:1037a800400800000600000000000000ae0900000c
:1037b8004001000000000000300800000a0000007e
:1037c80000000000da0c00001600000000000000f5
:1037d8004a08000002000000000000004c08000039
:1037e80062010000000000001e0800001200000036
:1037f80000000000ee0a0000400100000000000088
:10380800fa0c00000400000002000000030201009e
:1038180002000000920c00004800000000000000b8
:10382800000800001e00000000000000000000006a
:020000040000fa
:103838000000fa004427ef0040a7a9000080fa0022
:10384800000006000000fa00f9ff070035ff070036
:1038580084fd070001c1b30020c0b30026f80700ab
:103868005dfe070087ff07007cfc07007bf8070068
:1038780089f807008040eb000040eb008cf8070057
:10388800604b280006f907009bf507009ef4070027
:10389800e8fa07000c0007000000eb0097fd07009e
:1038a8001000200095fd07002000200093fd070070
:1038b800c0f507008afe0700c7f40700a1fc07004f
:1038c80010fb0700f4ff37000200fa000000eb00cd
:1038d800000f780005003700e0ae20001e00400011
:1038e80001c2b300014878001e0fe800f013200061
:1038f8009e007800808f5000f7ff34000080fa00a7
:10390800000006000400fa00004f78001107980034
:10391800e1ae20001e009000008040001e487800a4
:103928000080fa00000006000200fa00000f78008c
:10393800e0ae20001e004000104078000080fa0031
:10394800000006000000fa00e0ae20000080fa0047
:043958000000060065
:020000040000fa
:04aff8008b69000061
:020000040000fa
:04affc003b3f0000d7
:00000001FF
