:020000040000FA
:04000000EAEF00F033
:020004000000FA
:04000800A5EF00F070
:020018001100D5
:100020000000000000000000000808080808080898
:1000300008080810101010101010101010181818C0
:1000400018181818181818202020202020202020E8
:100050002028282828282828282828303030303000
:100060003030303030383838383838383838384030
:100070004040404040404048484848484848484838
:100080004850505050505050505050585858585850
:100090005858585858606060606060606060606880
:1000A0006868686868686868687070707070707098
:1000B00070707078787878787878787878808080C0
:1000C00080808080808080888888888888888888E8
:1000D0008890909090909090909090989898989800
:1000E0009898989898A0A0A0A0A0A0A0A0A0A0A830
:1000F000A8A8A8A8A8A8A8A8A8B0B0B0B0B0B0B048
:10010000B0B0B0B8B8B8B8B8B8B8B8B8B8C0C0C06F
:10011000C0C0C0C0C0C0C0C8C8C8C8C8C8C8C8C897
:10012000C8D0D0D0D0D0D0D0D0D0D0D8D8D8D8D8AF
:10013000D8D8D8D8D8E0E0E0E0E0E0E0E0E0E0E8DF
:10014000E8E8E8E8E8E8E8E8E8F0E4EC00F0002AAD
:10015000C80E00621100022A006A1100880ED56ED6
:10016000D09EE00EF26EE4EC00F01200006A016A2C
:10017000036A046A026A056A096A066A076A086A03
:10018000106A116A126A136A146A156A166A176A83
:10019000186A196A206A216A800EE96EE16EEA6ABD
:1001A000E26A1200956A966A926A030E936EC00E16
:1001B000946E8C6A8D6A1200900EAB6E260EAC6E39
:1001C000B86A400EAF6E1200CF0ED76E2F0ED66EED
:1001D000F2941200AEEC00F0B6EC00F0D2EC00F0BD
:1001E000DCEC00F081B046EF01F081B286EF01F067
:1001F0009EBA1AEF01F003A002EF01F0140E0060A6
:1002000049EF02F004A009EF01F00A0E006049EF87
:1002100002F009A012EF01F00A0E006056EF02F0A2
:10022000F2EF00F0066AF2EF00F08D6A030E8C6EBA
:1002300006681200096A036A046A8C6A8D6AAECF86
:1002400001F0010E016242EF01F063EC01F09EAAA1
:1002500027EF01F0AECF01F0000E016439EF01F09D
:1002600001C0EEFF3CEC01F09EBA2AEF01F034EF42
:1002700001F00368F2EF00F0132AD8A01200122A4E
:10028000136A120044EC02F094EF01F0096A066A66
:10029000036A046A8C6A8D6A006A81EC01F081A0AD
:1002A0005EEF01F06AEC01F0006A026A9EBA6DEF3F
:1002B00001F00A0E026256EF01F0096880B05EEFAD
:1002C00001F0F2EF00F0EA6A800EE96E116A126A3C
:1002D000136A1200020EAD6E120063EC01F0AECF95
:1002E00001F0000E01647EEF01F001C0EEFF3CEC76
:1002F00001F09EBA6FEF01F079EF01F003685EEF55
:1003000001F0030E006281EF01F01200096A066A33
:10031000036A046A8C6A8D6A006A81EC01F081A22A
:1003200012EF02F044EC02F0EA50E2629EEF01F0BC
:10033000E950E1629EEF01F00DEF02F010A017EF1F
:1003400002F017B020EC02F021B03EEF02F018B03E
:100350002DEF02F019B033EF02F020B039EF02F0C8
:10036000E6CF01F0DAEC01F001BEC4EF01F000A02D
:10037000B7EF01F0006A010E896E00A0BDEF01F039
:10038000006A896AD1EF01F000A0C4EF01F0006AB1
:10039000896A00A0C9EF01F0006A010E896ED1EFF1
:1003A00001F00146112A080E1162B2EF01F0116A44
:1003B00094EF01F0152A155014621200156AE2EC50
:1003C00001F01200FF0E8C62EFEF01F0000E8D6461
:1003D000EDEF01F0030E8D6E12008D2A12008C4697
:1003E000FE0E8C168C2A120013C015F012C016F0E7
:1003F000200E1526D8A0FFEF01F0156A162AF86A1C
:1004000016C0F7FF15C0F6FF0800F5CF14F0156A07
:10041000166A1200096812EF02F010A00AEF02F04B
:10042000106A046881B212EF02F0F2EF00F0106877
:10043000FF0E016EF4EC01F0116A1768B2EF01F0E3
:1004400000A020EF02F0176A006A010E896A0062BC
:1004500027EF02F0006A21681200010E016E186A8F
:100460001968B2EF01F0020E016E196A2068B2EF4E
:1004700001F0030E016E206AB2EF01F04E0E016E24
:100480001868216AB2EF01F0E26A800EE16E116A2B
:100490001200006A8CA051EF02F08C6A8D6AF2EFB4
:1004A00000F08C68030E8D6EF2EF00F0006A06A07B
:1004B00015EC01F08CCF08F08DCF07F005B07FEF81
:1004C00002F00846FE0E0816800E08626CEF02F07D
:1004D000010E076E92EF02F0010E076274EF02F058
:1004E000030E076E92EF02F0030E076292EF02F026
:1004F000010E076E800E086E056892EF02F008424A
:100500007F0E0816010E07628BEF02F0C00E086E18
:10051000076A92EF02F0010E086292EF02F0060EF7
:10052000086E056A08C08CFF0C0E8D1607C08DFF83
:04053000F2EF00F0F6
:020000040030CA
:0100010002FC
:010003001EDE
:010005008179
:00000001FF
